:020000040800F2
:10000000A006002089010008D9080008190400088A
:100010005104000843020008D91400080000000041
:100020000000000000000000000000003D0D00087E
:10003000F90200080000000061090008510E0008E4
:10004000A3010008A3010008A3010008A301000800
:10005000A3010008A3010008A3010008A3010008F0
:10006000A3010008A3010008A3010008A3010008E0
:10007000A3010008A3010008A3010008A3010008D0
:10008000A3010008A3010008A3010008A3010008C0
:10009000A3010008A3010008A3010008A3010008B0
:1000A000A3010008A3010008A3010008A3010008A0
:1000B000A3010008910F0008A3010008A301000894
:1000C000A3010008A3010008A3010008A301000880
:1000D000A3010008A3010008A3010008A301000870
:1000E000A3010008A3010008A301000800F002F822
:1000F00000F03AF80AA090E8000C82448344AAF188
:100100000107DA4501D100F02FF8AFF2090EBAE885
:100110000F0013F0010F18BFFB1A43F0010318473B
:10012000001D0000201D0000103A24BF78C878C1CF
:10013000FAD8520724BF30C830C144BF04680C60ED
:10014000704700000023002400250026103A28BF35
:1001500078C1FBD8520728BF30C148BF0B60704739
:100160001FB51FBD10B510BD00F031F81146FFF7E7
:10017000F7FF01F0FFF900F04FF803B4FFF7F2FFCB
:1001800003BC00F057F800000948804709480047C1
:10019000FEE7FEE7FEE7FEE7FEE7FEE7FEE7FEE737
:1001A000FEE7FEE704480549054A064B7047000094
:1001B000550E0008ED000008A0000020A006002059
:1001C000A0020020A00200207047704770477546CB
:1001D00000F02CF8AE4605006946534620F00700B3
:1001E000854618B020B5FFF7DDFFBDE820404FF091
:1001F00000064FF000074FF000084FF0000B21F011
:100200000701AC46ACE8C009ACE8C009ACE8C009DD
:10021000ACE8C0098D46704710B50446AFF30080C6
:100220002046BDE81040FFF7A8BF00000048704717
:100230003C00002001491820ABBEFEE7260002006A
:10024000704700BFFEE700B5034663B9002000F029
:1002500091F9002000F0FEF8002000F0ADFA002037
:1002600000F01AFA0BE0012000F084F9012000F000
:10027000F1F8012000F0A0FA012000F00DFA00BD15
:1002800010B50446204600F0B9F9204600F026F9E2
:10029000204600F0FBFA204600F068FA10BD10B5C9
:1002A0000446204600F0D0F9204600F03DF92046F3
:1002B00000F0C6FA204600F033FA10BD10B504462F
:1002C000204600F09BF9204600F008F9204600F097
:1002D000B7FA204600F024FA10BD10B504462046B7
:1002E00000F0B2F9204600F01FF9204600F0CEFAE7
:1002F000204600F03BFA10BD70472DE9F041024660
:1003000000250026002000230024002791F803C0C8
:100310000CF00F0591F803C00CF0100CBCF1000FAD
:1003200003D091F802C04CEA050591F800C0BCF179
:10033000000F31D0146800202BE04FF0010C0CFAB4
:1003400000F3B1F800C00CEA03069E4220D18300FE
:100350004FF00F0C0CFA03F7BC4305FA03FC4CEA10
:10036000040491F803C0BCF1280F06D14FF0010C32
:100370000CFA00FCC2F814C00AE091F803C0BCF10A
:10038000480F05D14FF0010C0CFA00FCC2F810C068
:10039000401C0828D1D31460B1F800C0BCF1FF0F95
:1003A00034DD546800202EE000F1080C4FF0010805
:1003B00008FA0CF3B1F800C00CEA03069E4221D102
:1003C00083004FF00F0C0CFA03F7BC4305FA03FC53
:1003D0004CEA040491F803C0BCF1280F05D100F1E8
:1003E000080C08FA0CF8C2F8148091F803C0BCF1AC
:1003F000480F07D100F1080C4FF0010808FA0CF87B
:10040000C2F81080401C0828CED35460BDE8F081AB
:10041000416170470161704700BFFEE708B50121E7
:10042000042000F0AFFA0620ADF8000010208DF88F
:10043000030001208DF8020069460448FFF75DFFC4
:1004400006210248FFF7E6FF08BD00000008014052
:1004500000BFFEE7E8B91E49096821F470611C4A33
:1004600011601146096841F4807111600021194A38
:1004700011601749096821F47041154A116011464D
:10048000096841F4805111600021134AC2F8AC118F
:100490001CE00F49096821F470610D4A1160114692
:1004A000096841F48071116001210A4A116008490C
:1004B000096821F47041064A11601146096841F447
:1004C000805111600121044AC2F8AC11704700004C
:1004D00004080140A80121420000214210B5044651
:1004E0000E48006820F470600C49086008460068F7
:1004F00040F48070086000200949086007480068DF
:1005000020F47040054908600846006840F4104037
:1005100008602146034800F08AFF10BD040801402E
:10052000A8012142002C014010B504460E48006885
:1005300020F470400C4908600846006840F4805080
:1005400008600020094908600748006820F47060CE
:10055000054908600846006840F4106008602146BC
:10056000034800F062FF10BD04080140AC012142C5
:10057000002C0140E8B91E49096821F00F011C4A0E
:1005800011601146096841F0010111600021194A0A
:1005900011601749096821F0F001154A11601146F0
:1005A000096841F0300111600021134AC2F8A4111A
:1005B0001CE00F49096821F00F010D4A1160114636
:1005C000096841F00101116001210A4A11600849DE
:1005D000096821F0F001064A11601146096841F0EE
:1005E000300111600121044AC2F8A41170470000D3
:1005F00004080140A00121420000214210B5044638
:100600000E48006820F00F000C490860084600689A
:1006100040F00100086000200949086007480068B0
:1006200020F0F000054908600846006840F090009E
:1006300008602146034800F0F6FE10BD04080140A2
:10064000A0012142002C014010B504460E4800686C
:1006500020F0F0000C4908600846006840F03000C7
:1006600008600020094908600748006808490840F8
:10067000054908600846006840F009000860214606
:10068000044800F0CEFE10BD04080140A401214240
:10069000F0FFFF0F002C0140E8B91E49096821F066
:1006A0000F011C4A11601146096841F001011160F7
:1006B0000021194A11601749096821F0F001154A13
:1006C00011601146096841F0100111600021134AC0
:1006D000C2F8A4111CE00F49096821F00F010D4A6E
:1006E00011601146096841F00101116001210A4AB7
:1006F00011600849096821F0F001064A11601146AD
:10070000096841F0100111600121044AC2F8A411E6
:1007100070470000040C0140A0812142008021426A
:1007200010B504460E48006820F00F000C49086020
:100730000846006840F00100086000200949086090
:100740000748006820F0F000054908600846006886
:1007500040F0900008602146034800F068FE10BD9C
:10076000040C0140A08121420008004010B504465D
:100770000E48006820F0F0000C4908600846006848
:1007800040F0100008600020094908600748006830
:1007900020F00F00054908600846006840F0090095
:1007A00008602146034800F040FE10BD040C0140E3
:1007B000A481214200080040E8B91E49096821F0DF
:1007C00070611C4A11601146096841F08071116026
:1007D0000021194A11601749096821F07041154A32
:1007E00011601146096841F0805111600021134ADF
:1007F000C2F89C111CE00F49096821F070610D4A94
:1008000011601146096841F08071116001210A4AA6
:1008100011600849096821F07041064A11601146CB
:10082000096841F0805111600121044AC2F89C110D
:1008300070470000000C0140988121420080214255
:1008400010B504460E48006820F070600C4908603E
:100850000846006840F08070086000200949086080
:100860000748006820F070400549086008460068A5
:1008700040F0104008602146034800F0D4FD10BD50
:10088000000C0140988121420008004010B5044648
:100890000E48006820F070400C4908600846006867
:1008A00040F080500860002009490860074800684F
:1008B00020F07060054908600846006840F010604C
:1008C00008602146034800F0ACFD10BD000C01405B
:1008D0009C812142000800407047000070B5002153
:1008E00000230F22C47804B3154C246804F4E06498
:1008F000C4F5E064210AC1F10403CA40447804FA53
:1009000003F184781440214309010E4C0678A15567
:10091000047804F01F050124AC4005786D11AD008A
:1009200005F1E025C5F8004109E0047804F01F0551
:100930000124AC40044D0678761145F8264070BD80
:100940000CED00E000E400E080E100E0024901433A
:10095000024A1160704700000000FA050CED00E04B
:100960007047000029B1064AD2690243044BDA619C
:1009700004E0034AD2698243014BDA617047000008
:100980000010024029B1064A92690243044B9A6161
:1009900004E0034A92698243014B9A617047000068
:1009A000001002401CB511A103C9CDE900010024CB
:1009B000082000F07DF905226946302000F0CCF8CF
:1009C00005226946102000F075F806E01DF80400C5
:1009D000662800D003E0601CC4B2052CF6DB00BF23
:1009E000052C01D001201CBD0020FCE76666666670
:1009F0006600000008B501210820FFF7C3FF4FF48F
:100A0000A050ADF8000010208DF8030003208DF8F1
:100A1000020069460E48FFF770FC4FF4A0510C48E5
:100A2000FFF7F6FC4FF40060ADF8000028208DF8C9
:100A3000030069460648FFF760FC00F0C5F8002097
:100A40000449086001200449C1F8A80108BD00005C
:100A5000000C0140B08121420080214210B50020ED
:100A600011490860052211492A2000F075F801217A
:100A7000212000F091F80121222000F08DF828219A
:100A8000252000F089F80E21312000F085F827217B
:100A9000262000F081F80F21202000F07DF80120B1
:100AA0000349C1F8B00110BDB0812142191E0008F0
:100AB000008021422DE9F04107460D4616460024EC
:100AC00000200A490860384600F0C8F8804605E072
:100AD000FF2000F0C3F82855601CC4B2B442F7DB15
:100AE0000120024908604046BDE8F081A88121420A
:100AF00070B50446002007490860204600F0AEF8B3
:100B0000FF2000F0ABF8054601200349C1F8A80119
:100B1000284670BDA88121420080214270B504465C
:100B20000D46082000F0C4F80720FFF7E1FF064655
:100B30003146272000F030F806F0400050B12A4638
:100B400021466120FFF7B6FFFF21E22000F024F8E4
:100B5000002070BD0120FCE72DE9F04107460C465E
:100B600015464FF00008002600200A490860384664
:100B700000F074F8804605E014F8010B00F06EF800
:100B8000701CC6B2AE42F7DB012002490860404645
:100B9000BDE8F081A881214270B505460C460020D1
:100BA00007490860284600F059F80646204600F03C
:100BB00055F801200349C1F8A801304670BD000076
:100BC000A88121420080214200B587B00121082080
:100BD000FFF7D8FE01218803FFF7C4FE4FF4604001
:100BE000ADF8180018208DF81B0003208DF81A00AE
:100BF00006A91848FFF781FB4FF460411548FFF73D
:100C000009FC0020ADF804004FF48270ADF8060036
:100C10000020ADF80800ADF80A00ADF80C004FF464
:100C20000070ADF80E001820ADF810000020ADF8EF
:100C300012000720ADF8140001A9074800F060F881
:100C40000121054800F042F8FF2000F007F807B046
:100C500000BD0000000C01400038004070B50446A3
:100C60000026002505E0701CC6B2FA2E01DD00202A
:100C700070BD02210D4800F035F80028F3D0214660
:100C80000A4800F03BF805E0681CC5B2FA2D01DD0A
:100C90000020EDE70121054800F024F80028F3D0FA
:100CA000024800F028F8C0B2E2E700000038004037
:100CB000054909884FF6C7721140034A1180114651
:100CC00009880143118070470038004021B1028833
:100CD00042F04002028004E002884FF6BF731A40DF
:100CE000028070470246002013890B400BB101209F
:100CF00000E0002070470146888970478181704775
:100D000010B50022028802F441520B884C8823431C
:100D10008C882343CC8823430C8923434C89234369
:100D20008C892343CC8923431A430280838B4FF25F
:100D3000FF74234083830B8A038210BD704710B574
:100D400000F002F810BD00000CB5002001900090EA
:100D50003348006840F480303149086000BF3048B3
:100D6000006800F4003000900198401C0190009849
:100D700018B90198B0F5A06FF1D12948006800F4C6
:100D8000003010B10120009001E000200090009898
:100D9000012843D12348006840F010002149086031
:100DA0000846006820F0030008600846006840F02C
:100DB000020008601A4840681949486008464068BF
:100DC00048600846406840F48060486008464068D3
:100DD00020F47C1048600846406840F4E810486001
:100DE0000846006840F08070086000BF0C4800684A
:100DF00000F000700028F9D00948406820F0030096
:100E0000074948600846406840F00200486000BF5B
:100E10000348406800F00C000828F9D10CBD000020
:100E20000010024000200240042808D14FF0E021C9
:100E3000096941F004014FF0E022116107E04FF031
:100E4000E021096921F004014FF0E02211617047AF
:100E50007047000010B51348006840F001001149C8
:100E6000086008464068104908400E494860084636
:100E700000680E4908400B4908600846006820F4E5
:100E8000802008600846406820F4FE0048604FF467
:100E90001F008860FFF753FF4FF0006004490860AF
:100EA00010BD0000001002400000FFF8FFFFF6FE3A
:100EB00008ED00E000B589B00121C802FFF762FD2E
:100EC00001210420FFF75EFD4FF47060ADF82000B3
:100ED00018208DF8230001208DF8220008A92A4847
:100EE000FFF70BFA6320ADF8180040F2CF20ADF801
:100EF00014000020ADF81A00ADF8160005A923482B
:100F000000F098FA6020ADF804000120ADF806006A
:100F10000020ADF80800ADF80A00ADF80C00ADF8FF
:100F20000E00ADF81000ADF8120001A9174800F04E
:100F30001DF901A9154800F06FF901A9134800F047
:100F4000CBF901A9114800F021FA01210F4800F066
:100F5000C9F801210D4800F0E0F808210B4800F025
:100F600051F90821094800F0A9F90821074800F0C3
:100F700003FA0821054800F047FA0121034800F070
:100F8000C0F809B000BD000000080140002C01407D
:100F900010B501210B4800F0CFF888B101210948B4
:100FA00000F0ACF808480088401C07490880084653
:100FB0000088B0F5FA7F03DB002008800349087041
:100FC00010BD0000000400400200002004000020CA
:100FD0001FB501210220FFF7C5FC40F2E730ADF854
:100FE00008004720ADF804000020ADF80A00ADF875
:100FF000060001A90C4800F01DFA012211460A481A
:1010000000F0ABF81D208DF8000001208DF80100E4
:101010008DF802008DF803006846FFF75FFC0121A0
:10102000014800F06EF81FBD0004004000B589B013
:1010300001210420FFF796FC01210820FFF7A2FC04
:101040004FF47070ADF8200018208DF823000120B7
:101050008DF8220008A92148FFF74FF96320ADF869
:10106000180040F2CF20ADF814000020ADF81A00AF
:10107000ADF8160005A91A4800F0DCF96020ADF8BB
:1010800004000120ADF806000020ADF80C0001A915
:10109000134800F06BF801A9114800F0BDF801A950
:1010A0000F4800F019F901A90D4800F06FF9082167
:1010B0000B4800F0A7F80821094800F0FFF80821C4
:1010C000074800F059F90821054800F09DF9012171
:1010D000034800F016F809B000BD0000000C014004
:1010E0000008004021B1028842F08002028004E042
:1010F00002884FF67F731A4002807047CA4302820B
:10110000704721B1028842F00102028004E00288A7
:101110004FF6FE731A400280704731B1B0F8442098
:1011200042F40042A0F8442005E0B0F84420C2F3A5
:101130000E02A0F84420704730B50246002000237C
:101140000024158A05EA0103958905EA010413B113
:101150000CB1012000E0002030BD1AB183890B439F
:10116000838102E083898B438381704770B50024BB
:1011700000220023058C4FF6FE7635400584028C54
:101180008388048B4FF68F752C40B51E2C400D883C
:101190002C43751E2A400D892A434D882A43144D3D
:1011A000A8420BD0134DA84208D0134DA84205D039
:1011B000124DA84202D0124DA84213D14FF6F77536
:1011C0002A404D892A434FF6FB752A408D882A43D1
:1011D0004FF6FF652B404FF6FF552B408D892B4373
:1011E000CD892B4383800483CD888586028470BD9E
:1011F000002C014000340140004001400044014007
:10120000004801400A460021018B4FF6F773194050
:10121000114301837047000070B5002400220023B1
:10122000058C4FF6EF7635400584028C8388048B5D
:1012300048F6FF752C404FF6FF452C400D884FF6C1
:10124000FF7606EA05252C434FF6DF752A400D8907
:1012500006EA05152A434D8806EA05152A43154D69
:10126000A84202D0144DA8421DD14FF67F752A40E6
:101270004D894FF6FF7606EA05152A434FF6BF75EE
:101280002A408D8806EA05152A434FF6FF352B4084
:101290004FF2FF752B408D8906EA85052B43CD89DA
:1012A00006EA85052B4383800483CD880587028465
:1012B00070BD0000002C0140003401400A460021AE
:1012C000018B4FF2FF7319404FF6FF7303EA0223BD
:1012D000194301837047000070B5002400220023E9
:1012E000058C4FF6FF6635400584028C8388848B1D
:1012F0004FF68F752C404FF6FC752C400D882C4313
:101300004FF6FF552A400D894FF6FF7606EA052570
:101310002A434D8806EA05252A43154DA84202D0E6
:10132000144DA8421DD14FF2FF752A404D894FF64A
:10133000FF7606EA05252A434FF6FF352A408D88B9
:1013400006EA05252A434EF6FF752B404DF6FF753C
:101350002B408D8906EA05152B43CD8906EA051534
:101360002B4383808483CD888587028470BD0000F1
:10137000002C0140003401400A460021818B4FF6C9
:10138000F7731940114381837047000070B5002244
:1013900000230024058C4EF6FF7635400584038C2F
:1013A0008488828B48F6FF752A404FF6FF452A4015
:1013B0000D884FF6FF7606EA05252A434DF6FF75A0
:1013C0002B400D8906EA05352B434D8806EA053585
:1013D0002B430B4DA84202D00A4DA84208D14BF630
:1013E000FF752C408D894FF6FF7606EA85152C4354
:1013F00084808283CD88A0F84050038470BD0000B3
:10140000002C0140003401400A460021818B4FF23C
:10141000FF7319404FF6FF7303EA022319438183D8
:101420007047818670470187704781877047A0F8B1
:1014300040107047002202881D4B98420ED01D4B71
:1014400098420BD0B0F1804F08D01B4B984205D08A
:101450001A4B984202D01A4B984204D14FF68F7320
:101460001A404B881A43174B984207D0164B9842A4
:1014700004D04FF6FF431A40CB881A4302808B8872
:1014800083850B8803850A4B98420BD0094B984201
:1014900008D00E4B984205D00D4B984202D00D4B10
:1014A000984201D10B7A03860123838270470000A2
:1014B000002C0140003401400004004000080040BE
:1014C000000C0040001000400014004000400140AB
:1014D000004401400048014000BFFEE710B56FF036
:1014E0000400FFF7A1FC0A480068C0080949B0FBE6
:1014F000F1F0094908800846008800EB4001C1EB83
:10150000C0104FF6FF7101EAC0000449088010BD09
:101510000C00002040420F000600002008000020C0
:10152000014609B9002070471148008848434FF030
:10153000E0235861002098611846006940F00100DE
:10154000186100BF4FF0E020026902F0010018B1FD
:1015500002F480300028F5D04FF0E020006920F040
:1015600001004FF0E02318610020986100BFDAE726
:10157000080000204FF0000A4FF4A060FFF7E6F9E2
:10158000FFF7ACFFFEF74AFFFFF722FDFFF792FCE3
:10159000FFF74CFDFFF72EFAFFF704FAB0B900BFD2
:1015A0000EE05548006808B9012000E000205249CB
:1015B00008603220FFF7B4FF0AF1010000F0FF0AD3
:1015C000BAF10A0FEDDB01204B490860FFF746FA3C
:1015D00090E00E214948FFF7A1FA00282AD1012006
:1015E000474908700020474908804448407B7628D6
:1015F00043DD4248407B89283FDA4048007B892808
:1016000019DB3E49097BA1F1890000F0AEFA804662
:101610004FF066323C4B00F023F9064600223B4B6C
:1016200000F076F8044600F073FA00F0FF0B58461D
:10163000FEF753FE58E03148007B762819DC2F492D
:10164000097BC1F1760000F090FA06464FF0663251
:101650002D4B00F005F9804600222C4B00F058F885
:10166000044600F055FA00F0FF0B5846FEF726FE40
:101670003AE00020FEF7E7FD36E02048407B762880
:1016800019DC1E49497BC1F1760000F06EFA8046F4
:101690004FF066321C4B00F0E3F8064600221B4B6D
:1016A00000F036F8044600F033FA00F0FF0B58461D
:1016B000FEF7F5FD18E01149497BA1F1890000F022
:1016C00054FA80464FF066320F4B00F0C9F80646D8
:1016D00000220E4B00F01CF8044600F019FA00F04E
:1016E000FF0B5846FEF7CCFD0548007810B90020E6
:1016F000FEF7A9FD6DE70000840121422E000020C5
:1017000004000020020000206666F63F0000304022
:1017100010B591EA030F48BF83F0004300F19882AF
:10172000841A71EB030C05D2121943EB0C03001B56
:1017300061EB0C01DFF824E14FEA1154A4EB135CD8
:101740001EEA430F18BF9EEA445F73D023EA0E03DC
:10175000DCF1200E21EA045143F4801332D322FA43
:101760000CFE10EB0E0023FA0CFE41EB0E01CCF147
:10177000200E03FA0EFE10EB0E0051F10001B1F540
:10178000801FCCF1200E32D201EB045112FA0EF27E
:10179000BDE8104058BF7047401C38BF5FEA4202A6
:1017A00018BF7047002814BF20F0010041F100016C
:1017B0004FEA410313F5001F38BF7047A1F1C04144
:1017C00000F038BA012A43EB0302ACF1200CDCF143
:1017D0001F0E32BF4FF0000E23FA0CF310EB030084
:1017E00041EB0451B4EB115FD0D0A1EB045101F5F2
:1017F000801149085FEA300001EB04510ED350F12B
:10180000000038BF12FA0EFE08D1BDE81040C9E74B
:10181000401C38BF5FEA4202CAD1C3E7BDE81040AE
:101820004FEA410313F5001F38BF7047A1F1C041D3
:1018300000F000BA9EEA445F08D011EA5E0FBDE8EE
:10184000104004BF01F0004100207047BDE8104087
:1018500070B500F0A1F900BF64FBBE3E0000E0FFE0
:101860002DE9C04130B4DFF8A0C23CEA111418BF22
:101870003CEA131400F0EC8081EA03051CEA111421
:1018800044EAD57418BF1CEA131500F0C780A4EB16
:1018900005044FF0004545EAC12145EAC32341EA6A
:1018A000505143EA525304F17F74994204F50034D5
:1018B0004FEAC0204FEAC22208BF904200F09C804D
:1018C0004FEA13650FF24016765D4FEA134506FBAB
:1018D00005F7C7F1807706FB07F74FEAD737A7FB75
:1018E00003687642C8F58038A7FB06CE38BFA8F15A
:1018F000010807FB08E64FF0000EA6FB028CE6FB92
:1019000003CEDCF1000CCEF1004E38BFAEF1010E7B
:10191000A6FB0C584FF000074FF00005E6FB0E87C2
:10192000A1FB08C6A0FB07CE16EB0E0645F100058D
:10193000E1FB076515F1E04E7EBFA4F580345FEA58
:1019400046066D4116F1800745F100054FEA17275D
:101950004FEA066647EA0567A6F1DE46B6F1805F04
:101960004FEA15251FD9384624F0010C05EBC47148
:10197000BCF1FE6F01EB0C1102D8F0BCBDE8008198
:1019800024425CBF01F5801E9EEAC47F02D4F0BCF5
:10199000BDE80081244238D4F0BCA1F1C041BDE8CB
:1019A000004100F047B94FEAD22242EA43524FEADF
:1019B000D323A7FB02864FEAD02040EA415007FB21
:1019C00003661EEA0E0F4FEAD12105FB026658BFDF
:1019D000A6EB0056B6EB00564FEA520E4EEAC37E17
:1019E00018EB0E0E56EB530EBDD518EB02085E41F8
:1019F0007F1C55F10005B6E74FF480154FF0000746
:101A00004FF000064FF00008ADE7F0BC4FF00000CB
:101A100001F1C04101F00041BDE8008111EA0C1F55
:101A20000CEA131500D00CE013EA0C1F00F025801F
:101A30004FF00000F0BC81EA030101F00041BDE875
:101A40000081F0BCBDE8004181EA030100F0F2B87A
:101A5000F0BCBDE8004170B500F09EF8097EFC3E88
:101A600000F007B881EA03014FF0000001F00041E7
:101A7000704781EA030100F0DDB8F0BCBDE8004129
:101A80004FF0000021497047FFFDFBF9F7F5F4F234
:101A9000F0EEEDEBE9E8E6E4E3E1E0DEDDDBDAD809
:101AA000D7D5D4D3D1D0CFCDCCCBCAC8C7C6C5C467
:101AB000C2C1C0BFBEBDBCBBBAB9B8B7B6B5B4B37E
:101AC000B2B1B0AFAEADACABAAA9A8A8A7A6A5A469
:101AD000A3A3A2A1A09F9F9E9D9C9C9B9A9999982D
:101AE0009797969595949393929191908F8F8E8ED0
:101AF0008D8C8C8B8B8A898988888787868585845D
:101B000084838382828181800000FF070000F87F48
:101B10004FEA1153A3F58063D3F11E03A8BFD3F19D
:101B2000200C08DB4FF0004242EAC12252EA505238
:101B300032FA03F0704709420BD4102BC4BF0020C7
:101B4000704703F5787CBCF1FF3F05D04FF0FF30C4
:101B500070474FF00000704770B500F01DF800BFEF
:101B60004992248000207047F0E710F0004248BFFF
:101B70004042B0FA80F310FA03F10AD0C3F11D031A
:101B800003F580634FEA415002EB035202EBD1218F
:101B900070474FF0000070470EF1020E2EF0030E5A
:101BA0005EF8046B364205D4012A43EB030515F5B4
:101BB000001F12D8012841EB010C1CF5001F0CD8A6
:101BC0000ED14FEAD17C15F5001F0CEB4C0C0CF13B
:101BD000020C08BF4CEBD37C04E04FF0080C01E092
:101BE0004FEAD37C0CEB4C0526FA05F606F0070607
:101BF000B6F1040C06D20EEB860CBDE870404CF03A
:101C0000010C6047DFE80CF0090B02024FF00041C5
:101C10004FF00000A1F5002170BD194610460128C3
:101C200051EB010418BFD4F5001484BF002001F06B
:101C3000004170BD0808A0F500114FEA310170475E
:101C400010B591EA030F48BF83F000433FF568AD3C
:101C5000841A71EB030C07D212198CF0004C43EB81
:101C60000C03001B61EB0C01DFF8A4E14FEA1154F7
:101C7000A4EB135C1EEA430F18BF9EEA445F00F01A
:101C8000B08023EA6E03524221EA0451C3EB6E0393
:101C900038BF5B1EDCF1200E25D322FA0CFE10EBC0
:101CA0000E0043FA0CFE41EB0E01CCF1200E03FABC
:101CB0000EFE10EB0E0051F10001CCF1200E29D4E4
:101CC00012FA0EF201EB0451BDE8104058BF704704
:101CD000401C1CBFB2F1004F704700280CBF491CCC
:101CE00020F00100704712EB020E43EB030218BF15
:101CF0004FF0010E4EEA4202ACF1200CDCF11E0E58
:101D000054D943FA0CFE10EB0E0051F1FF31CCF127
:101D10001E0ED5D50EF1010E12FA0EFE404141EB1A
:101D2000010101EB445C5FEA5C5C10D910EBDE70F2
:101D300001EB045138BFBEF1004FBDE8104018BFA1
:101D4000704700280CBF491C20F00100704730D2BA
:101D50004FEAD42C11F5001124F400641BD0B1FA21
:101D600081F20B3AA41AA41ED2F12003914030FA5A
:101D700003F31943904001EBCC71002C01EB0451AB
:101D8000BDE81040A8BF704701F1C0414FF000000E
:101D900001F000417047B0FA80F310FA03F100D16E
:101DA00010BDE41A173C4805C90AE4E701EB0451E9
:101DB00010BD491001EB0451BDE810404FEA30005E
:101DC00002E04FF0000170474A0008BF0042F8D01F
:101DD000B2F5001F28BF704701F000414FF000002E
:101DE00070479EEA445F07D011EA5E0FBDE81040DD
:101DF00004BF002100207047BDE8104070B5FFF718
:101E0000CBFE00BF40DFF63E83F000411046704736
:101E10000000E0FF6A6978696E6A6978696E00009F
:101E2000401E0008000000202000000028010008DB
:101E3000601E000820000020800600004401000809
:101E400000000000000000000000000000A24A04A2
:101E5000000000000000000001020304060708095A
:040000050800018965
:00000001FF
